:100000001DC037C036C035C034C04DC232C031C04B
:1000100030C02FC02EC02DC02CC02BC02AC029C07C
:1000200028C027C026C067C06AC06FC072C07CC02D
:1000300076C086C080C090C089C092C011241FBE07
:10004000CFE5D4E0DEBFCDBF10E0A0E6B0E0E8EC45
:10005000F7E002C005900D92A236B107D9F720E073
:10006000A2E6B0E001C01D92AD36B207E1F7F2D2D0
:10007000A9C3C6CF949A93980895959A969808958F
:10008000C19AC2980895A89AA9980895811103C0A9
:10009000939A94980895813009F4ECCF94989398AA
:1000A0000895811103C0969A95980895813009F4B6
:1000B000E4CF959896980895811103C0C29AC1988B
:1000C0000895813009F4DCCFC198C2980895811158
:1000D00003C0A99AA8980895813009F4D4CFA898AC
:1000E000A9980895E82FF0E0EB30F10508F040C042
:1000F000ED5EFF4F0994BEDFC0DFC2DF0FC080E0BE
:10010000C5DF80E0CEDF80E014C080E0BFDFB5DF78
:1001100020C0B0DF80E0C5DF80E0CEDFB4CFAADF53
:1001200082E0BFDF82E0F9CF80E0B0DF82E0B9DFBC
:1001300082E0C2DF0FC082E0A9DF9FDFA1DF16C02F
:1001400082E0A4DF80E0ADDF80E00FC093DF80E0DD
:10015000A8DF96DF80E00BC080E098DF8EDFDCCF89
:1001600082E094DF82E09DDF82E0A6DF82E0AFCF15
:1001700008958930A9F188F4843041F138F482304F
:1001800009F150F5813009F048C024C0873031F1C1
:10019000D8F4863009F041C01BC0803299F038F4A1
:1001A000803171F0813151F08F30B9F527C086323E
:1001B000C9F08B3381F1813281F506C088E02CC013
:1001C00089E02AC080E028C081E026C082E024C007
:1001D00083E022C084E020C085E01EC086E01CC011
:1001E00087E01AC080916000865F809360008091F4
:1001F0006000853690F01092600008958091600054
:100200008A508093600080916000813F30F084E6E6
:100210008093600008958AE065CF0895899A889A4E
:10022000A29AA39A089580FF02C0AB9A01C0AB982E
:1002300081FF02C0AA9A01C0AA9882FF02C0909AC8
:1002400001C0909883FF02C0919A089591980895F3
:10025000CF93C82FE3DFAC9A8C2F82958F70E3DFAA
:10026000AC98AC9A8C2FDFDFAC988FEE90E00197C2
:10027000F1F700C00000CF910895AD98E9CFAD9A95
:10028000E7CF982F9058983008F48770F8CFCF9325
:10029000DF93EC0101C0F5DF89918111FCCFDF9183
:1002A000CF910895CF93DF93EC0101C0EADFFE0107
:1002B000219684918111FACFDF91CF910895CF9348
:1002C000DF93EC01219630D2982F91509E3F18F485
:1002D000D8DFCE01F6CFDF91CF910895CF93DF9392
:1002E000CDB7DEB761970FB6F894DEBF0FBECDBFB6
:1002F0004AE050E0BE016F5F7F4FC5D1C8DF619615
:100300000FB6F894DEBF0FBECDBFDF91CF91089539
:10031000CF93DF93CDB7DEB761970FB6F894DEBF0A
:100320000FBECDBF20E130E0AE014F5F5F4FCAD1BD
:10033000AEDF61960FB6F894DEBF0FBECDBFDF9182
:10034000CF9108950F931F93CF93DF93EB018770A5
:10035000880F880F880F805C90DF8E01085F1F4F29
:1003600089918DDFC017D107D9F7DF91CF911F9108
:100370000F9108950F931F93CF93DF93EB01877035
:10038000880F880F880F805C78DF8E01085F1F4F11
:10039000FE012196849173DFC017D107C9F7DF9161
:1003A000CF911F910F910895EF92FF920F931F939A
:1003B000CF93DF93EB018770880F880F880F805CE5
:1003C0005CDF8E01085F1F4F7E018FEFE81AF80A8D
:1003D000CE01AAD154DFE701E016F106A9F7DF91BB
:1003E000CF911F910F91FF90EF900895813009F404
:1003F00080E46058860F41CF81E03FDF87E496E2DA
:100400000197F1F700C00000089508DFA59AA49AAB
:10041000AD9AAC9A8FE295E70197F1F700C0000022
:10042000AC98AD98AC9A83E0FEDEAC9887E090E2A1
:100430000197F1F700C00000AC9A83E0F4DEAC98BD
:1004400087EC90E00197F1F700C00000AC9A83E0E0
:10045000EADEAC9887EC90E00197F1F700C000006D
:10046000AC9A82E0E0DEAC9887EC90E00197F1F77F
:1004700000C0000088E201DF88E0FFDE8CE0FDDEE6
:1004800086E0FBDEB9CFB898C09A8EB583608EBD8A
:100490008EB58F7B8EBD10926B0089B7806289BF4D
:1004A0001092690008951F920F920FB60F921124B7
:1004B0002F933F938F939F9386B597B520916200BA
:1004C00030916300821B930B26B537B530936300E0
:1004D000209362002EB530E423272EBD883F91057E
:1004E00010F010926B0020916B00222319F021E094
:1004F0002093640020916B00211111C02EB520645F
:100500002EBD109265001092670010926600209137
:100510006B002F5F20936B0022E0209364002091FA
:100520006400213009F062C08635910508F403C0EB
:10053000883F910510F010926400209164002130F2
:1005400009F054C08938910528F080916B008F5FC5
:1005500080936B0080916B00823008F442C08091E0
:100560006B0080FD3EC08091660090916700880F0F
:10057000991F90936700809366000EB406FE05C035
:1005800081609093670080936600809165008F5F23
:10059000809365008D3028F18091690081111CC025
:1005A00080916600909167009C012F733327209300
:1005B0006C009C01207C3770689415F8369527955F
:1005C0001694E1F720936A0088279870892F869502
:1005D00086958695809368001092640081E08093F0
:1005E000690080916B008F5F80936B008091640045
:1005F000811105C010926B008EB58F7B8EBD9F91CF
:100600008F913F912F910F900FBE0F901F901895D3
:100610003E9A3D9A86B1876886B9089597B1987FCA
:1006200097B927B197B1987F922B982B97B9369AA3
:100630003699FECF24B135B1C901089585B58860DA
:1006400085BD85B5846085BD89B7876089BF81E038
:1006500083BD0895F89417DF78948091690088230A
:1006600079F080916C0085DD109269002FEF81EEAA
:1006700094E0215080409040E1F700C00000EDCFB1
:100680008AE030DDEACFFB019F01E8944230BCF004
:100690004532ACF44A3029F497FB1EF490958195CD
:1006A0009F4F642F772758D0805D8A330CF0895D87
:1006B0008193CB010097A9F716F45DE25193108264
:1006C000C9013AC0FA01CF93FF93EF9322303CF176
:1006D00025322CF5C22FE894CA3049F497FB3EF43A
:1006E00090958095709561957F4F8F4F9F4F2C2FE0
:1006F000332744275527FF93EF9342D0EF91FF9183
:10070000605D6A330CF0695D6193B901CA016050A4
:1007100070408040904059F716F4CDE2C1931082AA
:100720008F919F91CF9108C0E199FECF9FBB8EBB67
:10073000E09A99278DB30895DC01FC01672F719130
:100740007723E1F7329704C07C916D9370836291B7
:10075000AE17BF07C8F30895AA1BBB1B51E107C022
:10076000AA1FBB1FA617B70710F0A61BB70B881F41
:10077000991F5A95A9F780959095BC01CD010895D0
:10078000A1E21A2EAA1BBB1BFD010DC0AA1FBB1F95
:10079000EE1FFF1FA217B307E407F50720F0A21B07
:1007A000B30BE40BF50B661F771F881F991F1A9474
:1007B00069F760957095809590959B01AC01BD019E
:0807C000CF010895F894FFCF6A
:0207C8006400CB
:00000001FF
